{
  "_format": "hh-sol-artifact-1",
  "contractName": "CertificateNFT",
  "sourceName": "contracts/CertificateNFT.sol",
  "abi": [
    {
      "inputs": [],
      "stateMutability": "nonpayable",
      "type": "constructor"
    },
    {
      "inputs": [
        {
          "internalType": "address",
          "name": "sender",
          "type": "address"
        },
        {
          "internalType": "uint256",
          "name": "tokenId",
          "type": "uint256"
        },
        {
          "internalType": "address",
          "name": "owner",
          "type": "address"
        }
      ],
      "name": "ERC721IncorrectOwner",
      "type": "error"
    },
    {
      "inputs": [
        {
          "internalType": "address",
          "name": "operator",
          "type": "address"
        },
        {
          "internalType": "uint256",
          "name": "tokenId",
          "type": "uint256"
        }
      ],
      "name": "ERC721InsufficientApproval",
      "type": "error"
    },
    {
      "inputs": [
        {
          "internalType": "address",
          "name": "approver",
          "type": "address"
        }
      ],
      "name": "ERC721InvalidApprover",
      "type": "error"
    },
    {
      "inputs": [
        {
          "internalType": "address",
          "name": "operator",
          "type": "address"
        }
      ],
      "name": "ERC721InvalidOperator",
      "type": "error"
    },
    {
      "inputs": [
        {
          "internalType": "address",
          "name": "owner",
          "type": "address"
        }
      ],
      "name": "ERC721InvalidOwner",
      "type": "error"
    },
    {
      "inputs": [
        {
          "internalType": "address",
          "name": "receiver",
          "type": "address"
        }
      ],
      "name": "ERC721InvalidReceiver",
      "type": "error"
    },
    {
      "inputs": [
        {
          "internalType": "address",
          "name": "sender",
          "type": "address"
        }
      ],
      "name": "ERC721InvalidSender",
      "type": "error"
    },
    {
      "inputs": [
        {
          "internalType": "uint256",
          "name": "tokenId",
          "type": "uint256"
        }
      ],
      "name": "ERC721NonexistentToken",
      "type": "error"
    },
    {
      "inputs": [
        {
          "internalType": "address",
          "name": "owner",
          "type": "address"
        }
      ],
      "name": "OwnableInvalidOwner",
      "type": "error"
    },
    {
      "inputs": [
        {
          "internalType": "address",
          "name": "account",
          "type": "address"
        }
      ],
      "name": "OwnableUnauthorizedAccount",
      "type": "error"
    },
    {
      "anonymous": false,
      "inputs": [
        {
          "indexed": true,
          "internalType": "address",
          "name": "owner",
          "type": "address"
        },
        {
          "indexed": true,
          "internalType": "address",
          "name": "approved",
          "type": "address"
        },
        {
          "indexed": true,
          "internalType": "uint256",
          "name": "tokenId",
          "type": "uint256"
        }
      ],
      "name": "Approval",
      "type": "event"
    },
    {
      "anonymous": false,
      "inputs": [
        {
          "indexed": true,
          "internalType": "address",
          "name": "owner",
          "type": "address"
        },
        {
          "indexed": true,
          "internalType": "address",
          "name": "operator",
          "type": "address"
        },
        {
          "indexed": false,
          "internalType": "bool",
          "name": "approved",
          "type": "bool"
        }
      ],
      "name": "ApprovalForAll",
      "type": "event"
    },
    {
      "anonymous": false,
      "inputs": [
        {
          "indexed": false,
          "internalType": "uint256",
          "name": "_fromTokenId",
          "type": "uint256"
        },
        {
          "indexed": false,
          "internalType": "uint256",
          "name": "_toTokenId",
          "type": "uint256"
        }
      ],
      "name": "BatchMetadataUpdate",
      "type": "event"
    },
    {
      "anonymous": false,
      "inputs": [
        {
          "indexed": false,
          "internalType": "string",
          "name": "message",
          "type": "string"
        }
      ],
      "name": "Log",
      "type": "event"
    },
    {
      "anonymous": false,
      "inputs": [
        {
          "indexed": false,
          "internalType": "uint256",
          "name": "_tokenId",
          "type": "uint256"
        }
      ],
      "name": "MetadataUpdate",
      "type": "event"
    },
    {
      "anonymous": false,
      "inputs": [
        {
          "indexed": true,
          "internalType": "address",
          "name": "previousOwner",
          "type": "address"
        },
        {
          "indexed": true,
          "internalType": "address",
          "name": "newOwner",
          "type": "address"
        }
      ],
      "name": "OwnershipTransferred",
      "type": "event"
    },
    {
      "anonymous": false,
      "inputs": [
        {
          "indexed": true,
          "internalType": "address",
          "name": "from",
          "type": "address"
        },
        {
          "indexed": true,
          "internalType": "address",
          "name": "to",
          "type": "address"
        },
        {
          "indexed": true,
          "internalType": "uint256",
          "name": "tokenId",
          "type": "uint256"
        }
      ],
      "name": "Transfer",
      "type": "event"
    },
    {
      "inputs": [
        {
          "internalType": "uint256",
          "name": "",
          "type": "uint256"
        }
      ],
      "name": "allIssuedCert",
      "outputs": [
        {
          "internalType": "uint256",
          "name": "",
          "type": "uint256"
        }
      ],
      "stateMutability": "view",
      "type": "function"
    },
    {
      "inputs": [
        {
          "internalType": "address",
          "name": "to",
          "type": "address"
        },
        {
          "internalType": "uint256",
          "name": "tokenId",
          "type": "uint256"
        }
      ],
      "name": "approve",
      "outputs": [],
      "stateMutability": "nonpayable",
      "type": "function"
    },
    {
      "inputs": [
        {
          "internalType": "address",
          "name": "owner",
          "type": "address"
        }
      ],
      "name": "balanceOf",
      "outputs": [
        {
          "internalType": "uint256",
          "name": "",
          "type": "uint256"
        }
      ],
      "stateMutability": "view",
      "type": "function"
    },
    {
      "inputs": [
        {
          "internalType": "uint256",
          "name": "tokenId",
          "type": "uint256"
        }
      ],
      "name": "getApproved",
      "outputs": [
        {
          "internalType": "address",
          "name": "",
          "type": "address"
        }
      ],
      "stateMutability": "view",
      "type": "function"
    },
    {
      "inputs": [
        {
          "internalType": "uint256",
          "name": "id",
          "type": "uint256"
        }
      ],
      "name": "getMetadataHashes",
      "outputs": [
        {
          "internalType": "string",
          "name": "",
          "type": "string"
        }
      ],
      "stateMutability": "view",
      "type": "function"
    },
    {
      "inputs": [
        {
          "internalType": "address",
          "name": "owner",
          "type": "address"
        },
        {
          "internalType": "address",
          "name": "operator",
          "type": "address"
        }
      ],
      "name": "isApprovedForAll",
      "outputs": [
        {
          "internalType": "bool",
          "name": "",
          "type": "bool"
        }
      ],
      "stateMutability": "view",
      "type": "function"
    },
    {
      "inputs": [
        {
          "internalType": "uint256",
          "name": "_objectID",
          "type": "uint256"
        },
        {
          "internalType": "address",
          "name": "claimedOwner",
          "type": "address"
        }
      ],
      "name": "isCertificateValid",
      "outputs": [
        {
          "internalType": "bool",
          "name": "",
          "type": "bool"
        }
      ],
      "stateMutability": "view",
      "type": "function"
    },
    {
      "inputs": [
        {
          "internalType": "uint256",
          "name": "",
          "type": "uint256"
        }
      ],
      "name": "metadataHashes",
      "outputs": [
        {
          "internalType": "string",
          "name": "",
          "type": "string"
        }
      ],
      "stateMutability": "view",
      "type": "function"
    },
    {
      "inputs": [
        {
          "internalType": "address",
          "name": "recipient",
          "type": "address"
        },
        {
          "internalType": "string",
          "name": "metadataHash",
          "type": "string"
        },
        {
          "internalType": "uint256",
          "name": "_objectID",
          "type": "uint256"
        }
      ],
      "name": "mintCertificate",
      "outputs": [],
      "stateMutability": "nonpayable",
      "type": "function"
    },
    {
      "inputs": [],
      "name": "name",
      "outputs": [
        {
          "internalType": "string",
          "name": "",
          "type": "string"
        }
      ],
      "stateMutability": "view",
      "type": "function"
    },
    {
      "inputs": [],
      "name": "owner",
      "outputs": [
        {
          "internalType": "address",
          "name": "",
          "type": "address"
        }
      ],
      "stateMutability": "view",
      "type": "function"
    },
    {
      "inputs": [
        {
          "internalType": "uint256",
          "name": "tokenId",
          "type": "uint256"
        }
      ],
      "name": "ownerOf",
      "outputs": [
        {
          "internalType": "address",
          "name": "",
          "type": "address"
        }
      ],
      "stateMutability": "view",
      "type": "function"
    },
    {
      "inputs": [],
      "name": "renounceOwnership",
      "outputs": [],
      "stateMutability": "nonpayable",
      "type": "function"
    },
    {
      "inputs": [
        {
          "internalType": "address",
          "name": "from",
          "type": "address"
        },
        {
          "internalType": "address",
          "name": "to",
          "type": "address"
        },
        {
          "internalType": "uint256",
          "name": "tokenId",
          "type": "uint256"
        }
      ],
      "name": "safeTransferFrom",
      "outputs": [],
      "stateMutability": "nonpayable",
      "type": "function"
    },
    {
      "inputs": [
        {
          "internalType": "address",
          "name": "from",
          "type": "address"
        },
        {
          "internalType": "address",
          "name": "to",
          "type": "address"
        },
        {
          "internalType": "uint256",
          "name": "tokenId",
          "type": "uint256"
        },
        {
          "internalType": "bytes",
          "name": "data",
          "type": "bytes"
        }
      ],
      "name": "safeTransferFrom",
      "outputs": [],
      "stateMutability": "nonpayable",
      "type": "function"
    },
    {
      "inputs": [
        {
          "internalType": "address",
          "name": "operator",
          "type": "address"
        },
        {
          "internalType": "bool",
          "name": "approved",
          "type": "bool"
        }
      ],
      "name": "setApprovalForAll",
      "outputs": [],
      "stateMutability": "nonpayable",
      "type": "function"
    },
    {
      "inputs": [
        {
          "internalType": "bytes4",
          "name": "interfaceId",
          "type": "bytes4"
        }
      ],
      "name": "supportsInterface",
      "outputs": [
        {
          "internalType": "bool",
          "name": "",
          "type": "bool"
        }
      ],
      "stateMutability": "view",
      "type": "function"
    },
    {
      "inputs": [],
      "name": "symbol",
      "outputs": [
        {
          "internalType": "string",
          "name": "",
          "type": "string"
        }
      ],
      "stateMutability": "view",
      "type": "function"
    },
    {
      "inputs": [
        {
          "internalType": "uint256",
          "name": "tokenId",
          "type": "uint256"
        }
      ],
      "name": "tokenURI",
      "outputs": [
        {
          "internalType": "string",
          "name": "",
          "type": "string"
        }
      ],
      "stateMutability": "view",
      "type": "function"
    },
    {
      "inputs": [
        {
          "internalType": "address",
          "name": "from",
          "type": "address"
        },
        {
          "internalType": "address",
          "name": "to",
          "type": "address"
        },
        {
          "internalType": "uint256",
          "name": "tokenId",
          "type": "uint256"
        }
      ],
      "name": "transferFrom",
      "outputs": [],
      "stateMutability": "nonpayable",
      "type": "function"
    },
    {
      "inputs": [
        {
          "internalType": "address",
          "name": "newOwner",
          "type": "address"
        }
      ],
      "name": "transferOwnership",
      "outputs": [],
      "stateMutability": "nonpayable",
      "type": "function"
    }
  ],
  "bytecode": "0x60806040523480156200001157600080fd5b50336040518060400160405280600e81526020017f43657274696669636174654e46540000000000000000000000000000000000008152506040518060400160405280600781526020017f434552544e465400000000000000000000000000000000000000000000000000815250816000908162000090919062000472565b508060019081620000a2919062000472565b505050600073ffffffffffffffffffffffffffffffffffffffff168173ffffffffffffffffffffffffffffffffffffffff16036200011a5760006040517f1e4fbdf70000000000000000000000000000000000000000000000000000000081526004016200011191906200059e565b60405180910390fd5b6200012b816200013260201b60201c565b50620005bb565b6000600760009054906101000a900473ffffffffffffffffffffffffffffffffffffffff16905081600760006101000a81548173ffffffffffffffffffffffffffffffffffffffff021916908373ffffffffffffffffffffffffffffffffffffffff1602179055508173ffffffffffffffffffffffffffffffffffffffff168173ffffffffffffffffffffffffffffffffffffffff167f8be0079c531659141344cd1fd0a4f28419497f9722a3daafe3b4186f6b6457e060405160405180910390a35050565b600081519050919050565b7f4e487b7100000000000000000000000000000000000000000000000000000000600052604160045260246000fd5b7f4e487b7100000000000000000000000000000000000000000000000000000000600052602260045260246000fd5b600060028204905060018216806200027a57607f821691505b60208210810362000290576200028f62000232565b5b50919050565b60008190508160005260206000209050919050565b60006020601f8301049050919050565b600082821b905092915050565b600060088302620002fa7fffffffffffffffffffffffffffffffffffffffffffffffffffffffffffffffff82620002bb565b620003068683620002bb565b95508019841693508086168417925050509392505050565b6000819050919050565b6000819050919050565b6000620003536200034d62000347846200031e565b62000328565b6200031e565b9050919050565b6000819050919050565b6200036f8362000332565b620003876200037e826200035a565b848454620002c8565b825550505050565b600090565b6200039e6200038f565b620003ab81848462000364565b505050565b5b81811015620003d357620003c760008262000394565b600181019050620003b1565b5050565b601f8211156200042257620003ec8162000296565b620003f784620002ab565b8101602085101562000407578190505b6200041f6200041685620002ab565b830182620003b0565b50505b505050565b600082821c905092915050565b6000620004476000198460080262000427565b1980831691505092915050565b600062000462838362000434565b9150826002028217905092915050565b6200047d82620001f8565b67ffffffffffffffff81111562000499576200049862000203565b5b620004a5825462000261565b620004b2828285620003d7565b600060209050601f831160018114620004ea5760008415620004d5578287015190505b620004e1858262000454565b86555062000551565b601f198416620004fa8662000296565b60005b828110156200052457848901518255600182019150602085019450602081019050620004fd565b8683101562000544578489015162000540601f89168262000434565b8355505b6001600288020188555050505b505050505050565b600073ffffffffffffffffffffffffffffffffffffffff82169050919050565b6000620005868262000559565b9050919050565b620005988162000579565b82525050565b6000602082019050620005b560008301846200058d565b92915050565b612b9180620005cb6000396000f3fe608060405234801561001057600080fd5b50600436106101375760003560e01c80638da5cb5b116100b8578063c87b56dd1161007c578063c87b56dd1461034c578063cb064ddf1461037c578063da20efe414610398578063e985e9c5146103c8578063f2fde38b146103f8578063f9fd78c81461041457610137565b80638da5cb5b146102a857806395d89b41146102c6578063983a33f6146102e4578063a22cb46514610314578063b88d4fde1461033057610137565b806342842e0e116100ff57806342842e0e146101f257806346ad72671461020e5780636352211e1461023e57806370a082311461026e578063715018a61461029e57610137565b806301ffc9a71461013c57806306fdde031461016c578063081812fc1461018a578063095ea7b3146101ba57806323b872dd146101d6575b600080fd5b61015660048036038101906101519190611e87565b610444565b6040516101639190611ecf565b60405180910390f35b6101746104a5565b6040516101819190611f7a565b60405180910390f35b6101a4600480360381019061019f9190611fd2565b610537565b6040516101b19190612040565b60405180910390f35b6101d460048036038101906101cf9190612087565b610553565b005b6101f060048036038101906101eb91906120c7565b610569565b005b61020c600480360381019061020791906120c7565b61066b565b005b61022860048036038101906102239190611fd2565b61068b565b6040516102359190611f7a565b60405180910390f35b61025860048036038101906102539190611fd2565b610798565b6040516102659190612040565b60405180910390f35b6102886004803603810190610283919061211a565b6107aa565b6040516102959190612156565b60405180910390f35b6102a6610864565b005b6102b0610878565b6040516102bd9190612040565b60405180910390f35b6102ce6108a2565b6040516102db9190611f7a565b60405180910390f35b6102fe60048036038101906102f99190611fd2565b610934565b60405161030b9190612156565b60405180910390f35b61032e6004803603810190610329919061219d565b610958565b005b61034a60048036038101906103459190612312565b61096e565b005b61036660048036038101906103619190611fd2565b610993565b6040516103739190611f7a565b60405180910390f35b61039660048036038101906103919190612436565b610aa6565b005b6103b260048036038101906103ad91906124a5565b610b91565b6040516103bf9190611ecf565b60405180910390f35b6103e260048036038101906103dd91906124e5565b610c4c565b6040516103ef9190611ecf565b60405180910390f35b610412600480360381019061040d919061211a565b610ce0565b005b61042e60048036038101906104299190611fd2565b610d66565b60405161043b9190611f7a565b60405180910390f35b6000634906490660e01b7bffffffffffffffffffffffffffffffffffffffffffffffffffffffff1916827bffffffffffffffffffffffffffffffffffffffffffffffffffffffff1916148061049e575061049d82610e06565b5b9050919050565b6060600080546104b490612554565b80601f01602080910402602001604051908101604052809291908181526020018280546104e090612554565b801561052d5780601f106105025761010080835404028352916020019161052d565b820191906000526020600020905b81548152906001019060200180831161051057829003601f168201915b5050505050905090565b600061054282610ee8565b5061054c82610f70565b9050919050565b6105658282610560610fad565b610fb5565b5050565b600073ffffffffffffffffffffffffffffffffffffffff168273ffffffffffffffffffffffffffffffffffffffff16036105db5760006040517f64a0ae920000000000000000000000000000000000000000000000000000000081526004016105d29190612040565b60405180910390fd5b60006105ef83836105ea610fad565b610fc7565b90508373ffffffffffffffffffffffffffffffffffffffff168173ffffffffffffffffffffffffffffffffffffffff1614610665578382826040517f64283d7b00000000000000000000000000000000000000000000000000000000815260040161065c93929190612585565b60405180910390fd5b50505050565b6106868383836040518060200160405280600081525061096e565b505050565b606060006009600084815260200190815260200160002080546106ad90612554565b9050116106ef576040517f08c379a00000000000000000000000000000000000000000000000000000000081526004016106e690612608565b60405180910390fd5b600060096000848152602001908152602001600020805461070f90612554565b80601f016020809104026020016040519081016040528092919081815260200182805461073b90612554565b80156107885780601f1061075d57610100808354040283529160200191610788565b820191906000526020600020905b81548152906001019060200180831161076b57829003601f168201915b5050505050905080915050919050565b60006107a382610ee8565b9050919050565b60008073ffffffffffffffffffffffffffffffffffffffff168273ffffffffffffffffffffffffffffffffffffffff160361081d5760006040517f89c62b640000000000000000000000000000000000000000000000000000000081526004016108149190612040565b60405180910390fd5b600360008373ffffffffffffffffffffffffffffffffffffffff1673ffffffffffffffffffffffffffffffffffffffff168152602001908152602001600020549050919050565b61086c6111e1565b6108766000611268565b565b6000600760009054906101000a900473ffffffffffffffffffffffffffffffffffffffff16905090565b6060600180546108b190612554565b80601f01602080910402602001604051908101604052809291908181526020018280546108dd90612554565b801561092a5780601f106108ff5761010080835404028352916020019161092a565b820191906000526020600020905b81548152906001019060200180831161090d57829003601f168201915b5050505050905090565b6008818154811061094457600080fd5b906000526020600020016000915090505481565b61096a610963610fad565b838361132e565b5050565b610979848484610569565b61098d610984610fad565b8585858561149d565b50505050565b606061099e82610ee8565b5060006006600084815260200190815260200160002080546109bf90612554565b80601f01602080910402602001604051908101604052809291908181526020018280546109eb90612554565b8015610a385780601f10610a0d57610100808354040283529160200191610a38565b820191906000526020600020905b815481529060010190602001808311610a1b57829003601f168201915b505050505090506000610a4961164e565b90506000815103610a5e578192505050610aa1565b600082511115610a93578082604051602001610a7b929190612664565b60405160208183030381529060405292505050610aa1565b610a9c84611665565b925050505b919050565b610aae6111e1565b600073ffffffffffffffffffffffffffffffffffffffff168373ffffffffffffffffffffffffffffffffffffffff1603610b1d576040517f08c379a0000000000000000000000000000000000000000000000000000000008152600401610b14906126d4565b60405180910390fd5b6000825111610b61576040517f08c379a0000000000000000000000000000000000000000000000000000000008152600401610b5890612740565b60405180910390fd5b610b6b83826116ce565b81600960008381526020019081526020016000209081610b8b919061290c565b50505050565b60003073ffffffffffffffffffffffffffffffffffffffff16636352211e846040518263ffffffff1660e01b8152600401610bcc9190612156565b602060405180830381865afa925050508015610c0657506040513d601f19601f82011682018060405250810190610c0391906129f3565b60015b610c135760009050610c46565b8273ffffffffffffffffffffffffffffffffffffffff168173ffffffffffffffffffffffffffffffffffffffff16149150505b92915050565b6000600560008473ffffffffffffffffffffffffffffffffffffffff1673ffffffffffffffffffffffffffffffffffffffff16815260200190815260200160002060008373ffffffffffffffffffffffffffffffffffffffff1673ffffffffffffffffffffffffffffffffffffffff16815260200190815260200160002060009054906101000a900460ff16905092915050565b610ce86111e1565b600073ffffffffffffffffffffffffffffffffffffffff168173ffffffffffffffffffffffffffffffffffffffff1603610d5a5760006040517f1e4fbdf7000000000000000000000000000000000000000000000000000000008152600401610d519190612040565b60405180910390fd5b610d6381611268565b50565b60096020528060005260406000206000915090508054610d8590612554565b80601f0160208091040260200160405190810160405280929190818152602001828054610db190612554565b8015610dfe5780601f10610dd357610100808354040283529160200191610dfe565b820191906000526020600020905b815481529060010190602001808311610de157829003601f168201915b505050505081565b60007f80ac58cd000000000000000000000000000000000000000000000000000000007bffffffffffffffffffffffffffffffffffffffffffffffffffffffff1916827bffffffffffffffffffffffffffffffffffffffffffffffffffffffff19161480610ed157507f5b5e139f000000000000000000000000000000000000000000000000000000007bffffffffffffffffffffffffffffffffffffffffffffffffffffffff1916827bffffffffffffffffffffffffffffffffffffffffffffffffffffffff1916145b80610ee15750610ee0826116ec565b5b9050919050565b600080610ef483611756565b9050600073ffffffffffffffffffffffffffffffffffffffff168173ffffffffffffffffffffffffffffffffffffffff1603610f6757826040517f7e273289000000000000000000000000000000000000000000000000000000008152600401610f5e9190612156565b60405180910390fd5b80915050919050565b60006004600083815260200190815260200160002060009054906101000a900473ffffffffffffffffffffffffffffffffffffffff169050919050565b600033905090565b610fc28383836001611793565b505050565b600080610fd384611756565b9050600073ffffffffffffffffffffffffffffffffffffffff168373ffffffffffffffffffffffffffffffffffffffff161461101557611014818486611958565b5b600073ffffffffffffffffffffffffffffffffffffffff168173ffffffffffffffffffffffffffffffffffffffff16146110a657611057600085600080611793565b6001600360008373ffffffffffffffffffffffffffffffffffffffff1673ffffffffffffffffffffffffffffffffffffffff168152602001908152602001600020600082825403925050819055505b600073ffffffffffffffffffffffffffffffffffffffff168573ffffffffffffffffffffffffffffffffffffffff1614611129576001600360008773ffffffffffffffffffffffffffffffffffffffff1673ffffffffffffffffffffffffffffffffffffffff168152602001908152602001600020600082825401925050819055505b846002600086815260200190815260200160002060006101000a81548173ffffffffffffffffffffffffffffffffffffffff021916908373ffffffffffffffffffffffffffffffffffffffff160217905550838573ffffffffffffffffffffffffffffffffffffffff168273ffffffffffffffffffffffffffffffffffffffff167fddf252ad1be2c89b69c2b068fc378daa952ba7f163c4a11628f55a4df523b3ef60405160405180910390a4809150509392505050565b6111e9610fad565b73ffffffffffffffffffffffffffffffffffffffff16611207610878565b73ffffffffffffffffffffffffffffffffffffffff16146112665761122a610fad565b6040517f118cdaa700000000000000000000000000000000000000000000000000000000815260040161125d9190612040565b60405180910390fd5b565b6000600760009054906101000a900473ffffffffffffffffffffffffffffffffffffffff16905081600760006101000a81548173ffffffffffffffffffffffffffffffffffffffff021916908373ffffffffffffffffffffffffffffffffffffffff1602179055508173ffffffffffffffffffffffffffffffffffffffff168173ffffffffffffffffffffffffffffffffffffffff167f8be0079c531659141344cd1fd0a4f28419497f9722a3daafe3b4186f6b6457e060405160405180910390a35050565b600073ffffffffffffffffffffffffffffffffffffffff168273ffffffffffffffffffffffffffffffffffffffff160361139f57816040517f5b08ba180000000000000000000000000000000000000000000000000000000081526004016113969190612040565b60405180910390fd5b80600560008573ffffffffffffffffffffffffffffffffffffffff1673ffffffffffffffffffffffffffffffffffffffff16815260200190815260200160002060008473ffffffffffffffffffffffffffffffffffffffff1673ffffffffffffffffffffffffffffffffffffffff16815260200190815260200160002060006101000a81548160ff0219169083151502179055508173ffffffffffffffffffffffffffffffffffffffff168373ffffffffffffffffffffffffffffffffffffffff167f17307eab39ab6107e8899845ad3d59bd9653f200f220920489ca2b5937696c31836040516114909190611ecf565b60405180910390a3505050565b60008373ffffffffffffffffffffffffffffffffffffffff163b1115611647578273ffffffffffffffffffffffffffffffffffffffff1663150b7a02868685856040518563ffffffff1660e01b81526004016114fc9493929190612a75565b6020604051808303816000875af192505050801561153857506040513d601f19601f820116820180604052508101906115359190612ad6565b60015b6115bc573d8060008114611568576040519150601f19603f3d011682016040523d82523d6000602084013e61156d565b606091505b5060008151036115b457836040517f64a0ae920000000000000000000000000000000000000000000000000000000081526004016115ab9190612040565b60405180910390fd5b805181602001fd5b63150b7a0260e01b7bffffffffffffffffffffffffffffffffffffffffffffffffffffffff1916817bffffffffffffffffffffffffffffffffffffffffffffffffffffffff19161461164557836040517f64a0ae9200000000000000000000000000000000000000000000000000000000815260040161163c9190612040565b60405180910390fd5b505b5050505050565b606060405180602001604052806000815250905090565b606061167082610ee8565b50600061167b61164e565b9050600081511161169b57604051806020016040528060008152506116c6565b806116a584611a1c565b6040516020016116b6929190612664565b6040516020818303038152906040525b915050919050565b6116e8828260405180602001604052806000815250611aea565b5050565b60007f01ffc9a7000000000000000000000000000000000000000000000000000000007bffffffffffffffffffffffffffffffffffffffffffffffffffffffff1916827bffffffffffffffffffffffffffffffffffffffffffffffffffffffff1916149050919050565b60006002600083815260200190815260200160002060009054906101000a900473ffffffffffffffffffffffffffffffffffffffff169050919050565b80806117cc5750600073ffffffffffffffffffffffffffffffffffffffff168273ffffffffffffffffffffffffffffffffffffffff1614155b156119005760006117dc84610ee8565b9050600073ffffffffffffffffffffffffffffffffffffffff168373ffffffffffffffffffffffffffffffffffffffff161415801561184757508273ffffffffffffffffffffffffffffffffffffffff168173ffffffffffffffffffffffffffffffffffffffff1614155b801561185a57506118588184610c4c565b155b1561189c57826040517fa9fbf51f0000000000000000000000000000000000000000000000000000000081526004016118939190612040565b60405180910390fd5b81156118fe57838573ffffffffffffffffffffffffffffffffffffffff168273ffffffffffffffffffffffffffffffffffffffff167f8c5be1e5ebec7d5bd14f71427d1e84f3dd0314c0f7b2291e5b200ac8c7c3b92560405160405180910390a45b505b836004600085815260200190815260200160002060006101000a81548173ffffffffffffffffffffffffffffffffffffffff021916908373ffffffffffffffffffffffffffffffffffffffff16021790555050505050565b611963838383611b0e565b611a1757600073ffffffffffffffffffffffffffffffffffffffff168373ffffffffffffffffffffffffffffffffffffffff16036119d857806040517f7e2732890000000000000000000000000000000000000000000000000000000081526004016119cf9190612156565b60405180910390fd5b81816040517f177e802f000000000000000000000000000000000000000000000000000000008152600401611a0e929190612b03565b60405180910390fd5b505050565b606060006001611a2b84611bcf565b01905060008167ffffffffffffffff811115611a4a57611a496121e7565b5b6040519080825280601f01601f191660200182016040528015611a7c5781602001600182028036833780820191505090505b509050600082602001820190505b600115611adf578080600190039150507f3031323334353637383961626364656600000000000000000000000000000000600a86061a8153600a8581611ad357611ad2612b2c565b5b04945060008503611a8a575b819350505050919050565b611af48383611d22565b611b09611aff610fad565b600085858561149d565b505050565b60008073ffffffffffffffffffffffffffffffffffffffff168373ffffffffffffffffffffffffffffffffffffffff1614158015611bc657508273ffffffffffffffffffffffffffffffffffffffff168473ffffffffffffffffffffffffffffffffffffffff161480611b875750611b868484610c4c565b5b80611bc557508273ffffffffffffffffffffffffffffffffffffffff16611bad83610f70565b73ffffffffffffffffffffffffffffffffffffffff16145b5b90509392505050565b600080600090507a184f03e93ff9f4daa797ed6e38ed64bf6a1f0100000000000000008310611c2d577a184f03e93ff9f4daa797ed6e38ed64bf6a1f0100000000000000008381611c2357611c22612b2c565b5b0492506040810190505b6d04ee2d6d415b85acef81000000008310611c6a576d04ee2d6d415b85acef81000000008381611c6057611c5f612b2c565b5b0492506020810190505b662386f26fc100008310611c9957662386f26fc100008381611c8f57611c8e612b2c565b5b0492506010810190505b6305f5e1008310611cc2576305f5e1008381611cb857611cb7612b2c565b5b0492506008810190505b6127108310611ce7576127108381611cdd57611cdc612b2c565b5b0492506004810190505b60648310611d0a5760648381611d0057611cff612b2c565b5b0492506002810190505b600a8310611d19576001810190505b80915050919050565b600073ffffffffffffffffffffffffffffffffffffffff168273ffffffffffffffffffffffffffffffffffffffff1603611d945760006040517f64a0ae92000000000000000000000000000000000000000000000000000000008152600401611d8b9190612040565b60405180910390fd5b6000611da283836000610fc7565b9050600073ffffffffffffffffffffffffffffffffffffffff168173ffffffffffffffffffffffffffffffffffffffff1614611e165760006040517f73c6ac6e000000000000000000000000000000000000000000000000000000008152600401611e0d9190612040565b60405180910390fd5b505050565b6000604051905090565b600080fd5b600080fd5b60007fffffffff0000000000000000000000000000000000000000000000000000000082169050919050565b611e6481611e2f565b8114611e6f57600080fd5b50565b600081359050611e8181611e5b565b92915050565b600060208284031215611e9d57611e9c611e25565b5b6000611eab84828501611e72565b91505092915050565b60008115159050919050565b611ec981611eb4565b82525050565b6000602082019050611ee46000830184611ec0565b92915050565b600081519050919050565b600082825260208201905092915050565b60005b83811015611f24578082015181840152602081019050611f09565b60008484015250505050565b6000601f19601f8301169050919050565b6000611f4c82611eea565b611f568185611ef5565b9350611f66818560208601611f06565b611f6f81611f30565b840191505092915050565b60006020820190508181036000830152611f948184611f41565b905092915050565b6000819050919050565b611faf81611f9c565b8114611fba57600080fd5b50565b600081359050611fcc81611fa6565b92915050565b600060208284031215611fe857611fe7611e25565b5b6000611ff684828501611fbd565b91505092915050565b600073ffffffffffffffffffffffffffffffffffffffff82169050919050565b600061202a82611fff565b9050919050565b61203a8161201f565b82525050565b60006020820190506120556000830184612031565b92915050565b6120648161201f565b811461206f57600080fd5b50565b6000813590506120818161205b565b92915050565b6000806040838503121561209e5761209d611e25565b5b60006120ac85828601612072565b92505060206120bd85828601611fbd565b9150509250929050565b6000806000606084860312156120e0576120df611e25565b5b60006120ee86828701612072565b93505060206120ff86828701612072565b925050604061211086828701611fbd565b9150509250925092565b6000602082840312156121305761212f611e25565b5b600061213e84828501612072565b91505092915050565b61215081611f9c565b82525050565b600060208201905061216b6000830184612147565b92915050565b61217a81611eb4565b811461218557600080fd5b50565b60008135905061219781612171565b92915050565b600080604083850312156121b4576121b3611e25565b5b60006121c285828601612072565b92505060206121d385828601612188565b9150509250929050565b600080fd5b600080fd5b7f4e487b7100000000000000000000000000000000000000000000000000000000600052604160045260246000fd5b61221f82611f30565b810181811067ffffffffffffffff8211171561223e5761223d6121e7565b5b80604052505050565b6000612251611e1b565b905061225d8282612216565b919050565b600067ffffffffffffffff82111561227d5761227c6121e7565b5b61228682611f30565b9050602081019050919050565b82818337600083830152505050565b60006122b56122b084612262565b612247565b9050828152602081018484840111156122d1576122d06121e2565b5b6122dc848285612293565b509392505050565b600082601f8301126122f9576122f86121dd565b5b81356123098482602086016122a2565b91505092915050565b6000806000806080858703121561232c5761232b611e25565b5b600061233a87828801612072565b945050602061234b87828801612072565b935050604061235c87828801611fbd565b925050606085013567ffffffffffffffff81111561237d5761237c611e2a565b5b612389878288016122e4565b91505092959194509250565b600067ffffffffffffffff8211156123b0576123af6121e7565b5b6123b982611f30565b9050602081019050919050565b60006123d96123d484612395565b612247565b9050828152602081018484840111156123f5576123f46121e2565b5b612400848285612293565b509392505050565b600082601f83011261241d5761241c6121dd565b5b813561242d8482602086016123c6565b91505092915050565b60008060006060848603121561244f5761244e611e25565b5b600061245d86828701612072565b935050602084013567ffffffffffffffff81111561247e5761247d611e2a565b5b61248a86828701612408565b925050604061249b86828701611fbd565b9150509250925092565b600080604083850312156124bc576124bb611e25565b5b60006124ca85828601611fbd565b92505060206124db85828601612072565b9150509250929050565b600080604083850312156124fc576124fb611e25565b5b600061250a85828601612072565b925050602061251b85828601612072565b9150509250929050565b7f4e487b7100000000000000000000000000000000000000000000000000000000600052602260045260246000fd5b6000600282049050600182168061256c57607f821691505b60208210810361257f5761257e612525565b5b50919050565b600060608201905061259a6000830186612031565b6125a76020830185612147565b6125b46040830184612031565b949350505050565b7f4d657461646174612068617368206e6f7420666f756e642e0000000000000000600082015250565b60006125f2601883611ef5565b91506125fd826125bc565b602082019050919050565b60006020820190508181036000830152612621816125e5565b9050919050565b600081905092915050565b600061263e82611eea565b6126488185612628565b9350612658818560208601611f06565b80840191505092915050565b60006126708285612633565b915061267c8284612633565b91508190509392505050565b7f496e76616c696420726563697069656e74206164647265737300000000000000600082015250565b60006126be601983611ef5565b91506126c982612688565b602082019050919050565b600060208201905081810360008301526126ed816126b1565b9050919050565b7f4d65746164617461206861736820697320656d70747900000000000000000000600082015250565b600061272a601683611ef5565b9150612735826126f4565b602082019050919050565b600060208201905081810360008301526127598161271d565b9050919050565b60008190508160005260206000209050919050565b60006020601f8301049050919050565b600082821b905092915050565b6000600883026127c27fffffffffffffffffffffffffffffffffffffffffffffffffffffffffffffffff82612785565b6127cc8683612785565b95508019841693508086168417925050509392505050565b6000819050919050565b60006128096128046127ff84611f9c565b6127e4565b611f9c565b9050919050565b6000819050919050565b612823836127ee565b61283761282f82612810565b848454612792565b825550505050565b600090565b61284c61283f565b61285781848461281a565b505050565b5b8181101561287b57612870600082612844565b60018101905061285d565b5050565b601f8211156128c05761289181612760565b61289a84612775565b810160208510156128a9578190505b6128bd6128b585612775565b83018261285c565b50505b505050565b600082821c905092915050565b60006128e3600019846008026128c5565b1980831691505092915050565b60006128fc83836128d2565b9150826002028217905092915050565b61291582611eea565b67ffffffffffffffff81111561292e5761292d6121e7565b5b6129388254612554565b61294382828561287f565b600060209050601f8311600181146129765760008415612964578287015190505b61296e85826128f0565b8655506129d6565b601f19841661298486612760565b60005b828110156129ac57848901518255600182019150602085019450602081019050612987565b868310156129c957848901516129c5601f8916826128d2565b8355505b6001600288020188555050505b505050505050565b6000815190506129ed8161205b565b92915050565b600060208284031215612a0957612a08611e25565b5b6000612a17848285016129de565b91505092915050565b600081519050919050565b600082825260208201905092915050565b6000612a4782612a20565b612a518185612a2b565b9350612a61818560208601611f06565b612a6a81611f30565b840191505092915050565b6000608082019050612a8a6000830187612031565b612a976020830186612031565b612aa46040830185612147565b8181036060830152612ab68184612a3c565b905095945050505050565b600081519050612ad081611e5b565b92915050565b600060208284031215612aec57612aeb611e25565b5b6000612afa84828501612ac1565b91505092915050565b6000604082019050612b186000830185612031565b612b256020830184612147565b9392505050565b7f4e487b7100000000000000000000000000000000000000000000000000000000600052601260045260246000fdfea2646970667358221220287667fe16aeaa0510b36f796da4f94ac038e520391108928b9845a8af03952164736f6c63430008140033",
  "linkReferences": {},
  "deployedLinkReferences": {}
}