{
  "contractName": "CertificateNFT",
  "abi": [
    {
      "inputs": [],
      "stateMutability": "nonpayable",
      "type": "constructor"
    },
    {
      "inputs": [
        {
          "internalType": "address",
          "name": "sender",
          "type": "address"
        },
        {
          "internalType": "uint256",
          "name": "tokenId",
          "type": "uint256"
        },
        {
          "internalType": "address",
          "name": "owner",
          "type": "address"
        }
      ],
      "name": "ERC721IncorrectOwner",
      "type": "error"
    },
    {
      "inputs": [
        {
          "internalType": "address",
          "name": "operator",
          "type": "address"
        },
        {
          "internalType": "uint256",
          "name": "tokenId",
          "type": "uint256"
        }
      ],
      "name": "ERC721InsufficientApproval",
      "type": "error"
    },
    {
      "inputs": [
        {
          "internalType": "address",
          "name": "approver",
          "type": "address"
        }
      ],
      "name": "ERC721InvalidApprover",
      "type": "error"
    },
    {
      "inputs": [
        {
          "internalType": "address",
          "name": "operator",
          "type": "address"
        }
      ],
      "name": "ERC721InvalidOperator",
      "type": "error"
    },
    {
      "inputs": [
        {
          "internalType": "address",
          "name": "owner",
          "type": "address"
        }
      ],
      "name": "ERC721InvalidOwner",
      "type": "error"
    },
    {
      "inputs": [
        {
          "internalType": "address",
          "name": "receiver",
          "type": "address"
        }
      ],
      "name": "ERC721InvalidReceiver",
      "type": "error"
    },
    {
      "inputs": [
        {
          "internalType": "address",
          "name": "sender",
          "type": "address"
        }
      ],
      "name": "ERC721InvalidSender",
      "type": "error"
    },
    {
      "inputs": [
        {
          "internalType": "uint256",
          "name": "tokenId",
          "type": "uint256"
        }
      ],
      "name": "ERC721NonexistentToken",
      "type": "error"
    },
    {
      "inputs": [
        {
          "internalType": "address",
          "name": "owner",
          "type": "address"
        }
      ],
      "name": "OwnableInvalidOwner",
      "type": "error"
    },
    {
      "inputs": [
        {
          "internalType": "address",
          "name": "account",
          "type": "address"
        }
      ],
      "name": "OwnableUnauthorizedAccount",
      "type": "error"
    },
    {
      "anonymous": false,
      "inputs": [
        {
          "indexed": true,
          "internalType": "address",
          "name": "owner",
          "type": "address"
        },
        {
          "indexed": true,
          "internalType": "address",
          "name": "approved",
          "type": "address"
        },
        {
          "indexed": true,
          "internalType": "uint256",
          "name": "tokenId",
          "type": "uint256"
        }
      ],
      "name": "Approval",
      "type": "event"
    },
    {
      "anonymous": false,
      "inputs": [
        {
          "indexed": true,
          "internalType": "address",
          "name": "owner",
          "type": "address"
        },
        {
          "indexed": true,
          "internalType": "address",
          "name": "operator",
          "type": "address"
        },
        {
          "indexed": false,
          "internalType": "bool",
          "name": "approved",
          "type": "bool"
        }
      ],
      "name": "ApprovalForAll",
      "type": "event"
    },
    {
      "anonymous": false,
      "inputs": [
        {
          "indexed": false,
          "internalType": "uint256",
          "name": "_fromTokenId",
          "type": "uint256"
        },
        {
          "indexed": false,
          "internalType": "uint256",
          "name": "_toTokenId",
          "type": "uint256"
        }
      ],
      "name": "BatchMetadataUpdate",
      "type": "event"
    },
    {
      "anonymous": false,
      "inputs": [
        {
          "indexed": true,
          "internalType": "address",
          "name": "recipient",
          "type": "address"
        },
        {
          "indexed": false,
          "internalType": "uint256",
          "name": "tokenId",
          "type": "uint256"
        },
        {
          "indexed": false,
          "internalType": "string",
          "name": "metadataHash",
          "type": "string"
        },
        {
          "indexed": false,
          "internalType": "string",
          "name": "objIDmetadataHash",
          "type": "string"
        },
        {
          "indexed": false,
          "internalType": "uint256",
          "name": "objectID",
          "type": "uint256"
        }
      ],
      "name": "CertificateMinted",
      "type": "event"
    },
    {
      "anonymous": false,
      "inputs": [
        {
          "indexed": false,
          "internalType": "uint256",
          "name": "_tokenId",
          "type": "uint256"
        }
      ],
      "name": "MetadataUpdate",
      "type": "event"
    },
    {
      "anonymous": false,
      "inputs": [
        {
          "indexed": true,
          "internalType": "address",
          "name": "previousOwner",
          "type": "address"
        },
        {
          "indexed": true,
          "internalType": "address",
          "name": "newOwner",
          "type": "address"
        }
      ],
      "name": "OwnershipTransferred",
      "type": "event"
    },
    {
      "anonymous": false,
      "inputs": [
        {
          "indexed": true,
          "internalType": "address",
          "name": "from",
          "type": "address"
        },
        {
          "indexed": true,
          "internalType": "address",
          "name": "to",
          "type": "address"
        },
        {
          "indexed": true,
          "internalType": "uint256",
          "name": "tokenId",
          "type": "uint256"
        }
      ],
      "name": "Transfer",
      "type": "event"
    },
    {
      "inputs": [],
      "name": "TokenId",
      "outputs": [
        {
          "internalType": "uint256",
          "name": "",
          "type": "uint256"
        }
      ],
      "stateMutability": "view",
      "type": "function",
      "constant": true
    },
    {
      "inputs": [
        {
          "internalType": "uint256",
          "name": "",
          "type": "uint256"
        }
      ],
      "name": "allIssuedCert",
      "outputs": [
        {
          "internalType": "uint256",
          "name": "",
          "type": "uint256"
        }
      ],
      "stateMutability": "view",
      "type": "function",
      "constant": true
    },
    {
      "inputs": [
        {
          "internalType": "address",
          "name": "to",
          "type": "address"
        },
        {
          "internalType": "uint256",
          "name": "tokenId",
          "type": "uint256"
        }
      ],
      "name": "approve",
      "outputs": [],
      "stateMutability": "nonpayable",
      "type": "function"
    },
    {
      "inputs": [
        {
          "internalType": "address",
          "name": "owner",
          "type": "address"
        }
      ],
      "name": "balanceOf",
      "outputs": [
        {
          "internalType": "uint256",
          "name": "",
          "type": "uint256"
        }
      ],
      "stateMutability": "view",
      "type": "function",
      "constant": true
    },
    {
      "inputs": [
        {
          "internalType": "uint256",
          "name": "tokenId",
          "type": "uint256"
        }
      ],
      "name": "getApproved",
      "outputs": [
        {
          "internalType": "address",
          "name": "",
          "type": "address"
        }
      ],
      "stateMutability": "view",
      "type": "function",
      "constant": true
    },
    {
      "inputs": [
        {
          "internalType": "address",
          "name": "owner",
          "type": "address"
        },
        {
          "internalType": "address",
          "name": "operator",
          "type": "address"
        }
      ],
      "name": "isApprovedForAll",
      "outputs": [
        {
          "internalType": "bool",
          "name": "",
          "type": "bool"
        }
      ],
      "stateMutability": "view",
      "type": "function",
      "constant": true
    },
    {
      "inputs": [
        {
          "internalType": "uint256",
          "name": "",
          "type": "uint256"
        }
      ],
      "name": "metadataHashes",
      "outputs": [
        {
          "internalType": "string",
          "name": "",
          "type": "string"
        }
      ],
      "stateMutability": "view",
      "type": "function",
      "constant": true
    },
    {
      "inputs": [],
      "name": "name",
      "outputs": [
        {
          "internalType": "string",
          "name": "",
          "type": "string"
        }
      ],
      "stateMutability": "view",
      "type": "function",
      "constant": true
    },
    {
      "inputs": [
        {
          "internalType": "uint256",
          "name": "",
          "type": "uint256"
        }
      ],
      "name": "objectIDToTokenId",
      "outputs": [
        {
          "internalType": "uint256",
          "name": "",
          "type": "uint256"
        }
      ],
      "stateMutability": "view",
      "type": "function",
      "constant": true
    },
    {
      "inputs": [
        {
          "internalType": "uint256",
          "name": "",
          "type": "uint256"
        }
      ],
      "name": "objectIDtoHash",
      "outputs": [
        {
          "internalType": "string",
          "name": "",
          "type": "string"
        }
      ],
      "stateMutability": "view",
      "type": "function",
      "constant": true
    },
    {
      "inputs": [],
      "name": "owner",
      "outputs": [
        {
          "internalType": "address",
          "name": "",
          "type": "address"
        }
      ],
      "stateMutability": "view",
      "type": "function",
      "constant": true
    },
    {
      "inputs": [
        {
          "internalType": "uint256",
          "name": "tokenId",
          "type": "uint256"
        }
      ],
      "name": "ownerOf",
      "outputs": [
        {
          "internalType": "address",
          "name": "",
          "type": "address"
        }
      ],
      "stateMutability": "view",
      "type": "function",
      "constant": true
    },
    {
      "inputs": [],
      "name": "renounceOwnership",
      "outputs": [],
      "stateMutability": "nonpayable",
      "type": "function"
    },
    {
      "inputs": [
        {
          "internalType": "address",
          "name": "from",
          "type": "address"
        },
        {
          "internalType": "address",
          "name": "to",
          "type": "address"
        },
        {
          "internalType": "uint256",
          "name": "tokenId",
          "type": "uint256"
        }
      ],
      "name": "safeTransferFrom",
      "outputs": [],
      "stateMutability": "nonpayable",
      "type": "function"
    },
    {
      "inputs": [
        {
          "internalType": "address",
          "name": "from",
          "type": "address"
        },
        {
          "internalType": "address",
          "name": "to",
          "type": "address"
        },
        {
          "internalType": "uint256",
          "name": "tokenId",
          "type": "uint256"
        },
        {
          "internalType": "bytes",
          "name": "data",
          "type": "bytes"
        }
      ],
      "name": "safeTransferFrom",
      "outputs": [],
      "stateMutability": "nonpayable",
      "type": "function"
    },
    {
      "inputs": [
        {
          "internalType": "address",
          "name": "operator",
          "type": "address"
        },
        {
          "internalType": "bool",
          "name": "approved",
          "type": "bool"
        }
      ],
      "name": "setApprovalForAll",
      "outputs": [],
      "stateMutability": "nonpayable",
      "type": "function"
    },
    {
      "inputs": [
        {
          "internalType": "bytes4",
          "name": "interfaceId",
          "type": "bytes4"
        }
      ],
      "name": "supportsInterface",
      "outputs": [
        {
          "internalType": "bool",
          "name": "",
          "type": "bool"
        }
      ],
      "stateMutability": "view",
      "type": "function",
      "constant": true
    },
    {
      "inputs": [],
      "name": "symbol",
      "outputs": [
        {
          "internalType": "string",
          "name": "",
          "type": "string"
        }
      ],
      "stateMutability": "view",
      "type": "function",
      "constant": true
    },
    {
      "inputs": [
        {
          "internalType": "uint256",
          "name": "tokenId",
          "type": "uint256"
        }
      ],
      "name": "tokenURI",
      "outputs": [
        {
          "internalType": "string",
          "name": "",
          "type": "string"
        }
      ],
      "stateMutability": "view",
      "type": "function",
      "constant": true
    },
    {
      "inputs": [
        {
          "internalType": "address",
          "name": "from",
          "type": "address"
        },
        {
          "internalType": "address",
          "name": "to",
          "type": "address"
        },
        {
          "internalType": "uint256",
          "name": "tokenId",
          "type": "uint256"
        }
      ],
      "name": "transferFrom",
      "outputs": [],
      "stateMutability": "nonpayable",
      "type": "function"
    },
    {
      "inputs": [
        {
          "internalType": "address",
          "name": "newOwner",
          "type": "address"
        }
      ],
      "name": "transferOwnership",
      "outputs": [],
      "stateMutability": "nonpayable",
      "type": "function"
    },
    {
      "inputs": [
        {
          "internalType": "address",
          "name": "recipient",
          "type": "address"
        },
        {
          "internalType": "string",
          "name": "metadataHash",
          "type": "string"
        },
        {
          "internalType": "uint256",
          "name": "_objectID",
          "type": "uint256"
        }
      ],
      "name": "mintCertificate",
      "outputs": [],
      "stateMutability": "nonpayable",
      "type": "function"
    },
    {
      "inputs": [
        {
          "internalType": "uint256",
          "name": "_objectID",
          "type": "uint256"
        }
      ],
      "name": "getTokenIdFromObjectID",
      "outputs": [
        {
          "internalType": "uint256",
          "name": "",
          "type": "uint256"
        }
      ],
      "stateMutability": "view",
      "type": "function",
      "constant": true
    },
    {
      "inputs": [
        {
          "internalType": "uint256",
          "name": "id",
          "type": "uint256"
        }
      ],
      "name": "getMetadataHashes",
      "outputs": [
        {
          "internalType": "string",
          "name": "",
          "type": "string"
        }
      ],
      "stateMutability": "view",
      "type": "function",
      "constant": true
    },
    {
      "inputs": [
        {
          "internalType": "uint256",
          "name": "_objectID",
          "type": "uint256"
        }
      ],
      "name": "getMetadataHashFromObjectID",
      "outputs": [
        {
          "internalType": "string",
          "name": "",
          "type": "string"
        }
      ],
      "stateMutability": "view",
      "type": "function",
      "constant": true
    },
    {
      "inputs": [
        {
          "internalType": "uint256",
          "name": "tokenId",
          "type": "uint256"
        },
        {
          "internalType": "address",
          "name": "claimedOwner",
          "type": "address"
        }
      ],
      "name": "isCertificateValid",
      "outputs": [
        {
          "internalType": "bool",
          "name": "",
          "type": "bool"
        }
      ],
      "stateMutability": "view",
      "type": "function",
      "constant": true
    },
    {
      "inputs": [],
      "name": "getAllIssuedCert",
      "outputs": [
        {
          "internalType": "uint256[]",
          "name": "",
          "type": "uint256[]"
        },
        {
          "internalType": "string[]",
          "name": "",
          "type": "string[]"
        }
      ],
      "stateMutability": "view",
      "type": "function",
      "constant": true
    },
    {
      "inputs": [
        {
          "internalType": "uint256",
          "name": "tokenId",
          "type": "uint256"
        }
      ],
      "name": "checkMetadataExists",
      "outputs": [
        {
          "internalType": "bool",
          "name": "",
          "type": "bool"
        }
      ],
      "stateMutability": "view",
      "type": "function",
      "constant": true
    },
    {
      "inputs": [
        {
          "internalType": "uint256",
          "name": "_objectID",
          "type": "uint256"
        }
      ],
      "name": "objIdToHash",
      "outputs": [
        {
          "internalType": "bool",
          "name": "",
          "type": "bool"
        }
      ],
      "stateMutability": "view",
      "type": "function",
      "constant": true
    }
  ],
  "bytecode": "0x60806040526001600855348015610014575f5ffd5b50336040518060400160405280600e81526020016d10d95c9d1a599a58d85d1953919560921b8152506040518060400160405280600781526020016610d1549513919560ca1b815250815f908161006b91906101a0565b50600161007882826101a0565b5050506001600160a01b0381166100a857604051631e4fbdf760e01b81525f600482015260240160405180910390fd5b6100b1816100b7565b5061025a565b600780546001600160a01b038381166001600160a01b0319831681179093556040519116919082907f8be0079c531659141344cd1fd0a4f28419497f9722a3daafe3b4186f6b6457e0905f90a35050565b634e487b7160e01b5f52604160045260245ffd5b600181811c9082168061013057607f821691505b60208210810361014e57634e487b7160e01b5f52602260045260245ffd5b50919050565b601f82111561019b57805f5260205f20601f840160051c810160208510156101795750805b601f840160051c820191505b81811015610198575f8155600101610185565b50505b505050565b81516001600160401b038111156101b9576101b9610108565b6101cd816101c7845461011c565b84610154565b6020601f8211600181146101ff575f83156101e85750848201515b5f19600385901b1c1916600184901b178455610198565b5f84815260208120601f198516915b8281101561022e578785015182556020948501946001909201910161020e565b508482101561024b57868401515f19600387901b60f8161c191681555b50505050600190811b01905550565b611da7806102675f395ff3fe608060405234801561000f575f5ffd5b50600436106101c6575f3560e01c80637401800c116100fe578063b88d4fde1161009e578063da20efe41161006e578063da20efe4146103dd578063e985e9c5146103f0578063f2fde38b14610403578063f9fd78c814610416575f5ffd5b8063b88d4fde14610391578063c3b1e270146103a4578063c87b56dd146103b7578063cb064ddf146103ca575f5ffd5b806395d89b41116100d957806395d89b411461035a578063983a33f6146103625780639ffb8b4914610375578063a22cb4651461037e575f5ffd5b80637401800c146103235780638da5cb5b1461033657806392e8b80814610347575f5ffd5b806342842e0e116101695780634e58f006116101445780634e58f006146102e25780636352211e146102f557806370a0823114610308578063715018a61461031b575f5ffd5b806342842e0e1461029d578063447b7071146102b057806346ad7267146102cf575f5ffd5b8063095ea7b3116101a4578063095ea7b3146102325780632327e0071461024757806323b872dd146102745780632481fb8014610287575f5ffd5b806301ffc9a7146101ca57806306fdde03146101f2578063081812fc14610207575b5f5ffd5b6101dd6101d8366004611708565b610429565b60405190151581526020015b60405180910390f35b6101fa610453565b6040516101e99190611751565b61021a610215366004611763565b6104e2565b6040516001600160a01b0390911681526020016101e9565b61024561024036600461178e565b610509565b005b610266610255366004611763565b600c6020525f908152604090205481565b6040519081526020016101e9565b6102456102823660046117b8565b610518565b61028f6105a6565b6040516101e99291906117f6565b6102456102ab3660046117b8565b6106ba565b6102666102be366004611763565b5f908152600c602052604090205490565b6101fa6102dd366004611763565b6106d9565b6101fa6102f0366004611763565b6107dc565b61021a610303366004611763565b610873565b610266610316366004611896565b61087d565b6102456108c2565b6101dd610331366004611763565b6108d5565b6007546001600160a01b031661021a565b6101dd610355366004611763565b6108fa565b6101fa610915565b610266610370366004611763565b610924565b61026660085481565b61024561038c3660046118b1565b610943565b61024561039f366004611977565b61094e565b6101fa6103b2366004611763565b610966565b6101fa6103c5366004611763565b610a68565b6102456103d83660046119f2565b610b73565b6101dd6103eb366004611a5b565b610df2565b6101dd6103fe366004611a7e565b610e75565b610245610411366004611896565b610ea2565b6101fa610424366004611763565b610edf565b5f6001600160e01b03198216632483248360e11b148061044d575061044d82610ef7565b92915050565b60605f805461046190611aaa565b80601f016020809104026020016040519081016040528092919081815260200182805461048d90611aaa565b80156104d85780601f106104af576101008083540402835291602001916104d8565b820191905f5260205f20905b8154815290600101906020018083116104bb57829003601f168201915b5050505050905090565b5f6104ec82610f46565b505f828152600460205260409020546001600160a01b031661044d565b610514828233610f7e565b5050565b6001600160a01b03821661054657604051633250574960e11b81525f60048201526024015b60405180910390fd5b5f610552838333610f8b565b9050836001600160a01b0316816001600160a01b0316146105a0576040516364283d7b60e01b81526001600160a01b038086166004830152602482018490528216604482015260640161053d565b50505050565b6060806105b161107d565b6009545f8167ffffffffffffffff8111156105ce576105ce6118ec565b60405190808252806020026020018201604052801561060157816020015b60608152602001906001900390816105ec5790505b5090505f5b8281101561065c575f6009828154811061062257610622611ae2565b905f5260205f200154905061063681610a68565b83838151811061064857610648611ae2565b602090810291909101015250600101610606565b50600981818054806020026020016040519081016040528092919081815260200182805480156106a957602002820191905f5260205f20905b815481526020019060010190808311610695575b505050505091509350935050509091565b6106d483838360405180602001604052805f81525061094e565b505050565b5f818152600b60205260408120805460609291906106f690611aaa565b9050116107405760405162461bcd60e51b815260206004820152601860248201527726b2ba30b230ba30903430b9b4103737ba103337bab7321760411b604482015260640161053d565b5f828152600b60205260408120805461075890611aaa565b80601f016020809104026020016040519081016040528092919081815260200182805461078490611aaa565b80156107cf5780601f106107a6576101008083540402835291602001916107cf565b820191905f5260205f20905b8154815290600101906020018083116107b257829003601f168201915b5093979650505050505050565b600a6020525f9081526040902080546107f490611aaa565b80601f016020809104026020016040519081016040528092919081815260200182805461082090611aaa565b801561086b5780601f106108425761010080835404028352916020019161086b565b820191905f5260205f20905b81548152906001019060200180831161084e57829003601f168201915b505050505081565b5f61044d82610f46565b5f6001600160a01b0382166108a7576040516322718ad960e21b81525f600482015260240161053d565b506001600160a01b03165f9081526003602052604090205490565b6108ca61107d565b6108d35f6110aa565b565b5f818152600b6020526040812080548291906108f090611aaa565b9050119050919050565b5f818152600a6020526040812080548291906108f090611aaa565b60606001805461046190611aaa565b60098181548110610933575f80fd5b5f91825260209091200154905081565b6105143383836110fb565b610959848484610518565b6105a03385858585611199565b5f818152600a602052604081208054606092919061098390611aaa565b9050116109cd5760405162461bcd60e51b815260206004820152601860248201527726b2ba30b230ba30903430b9b4103737ba103337bab7321760411b604482015260640161053d565b5f828152600a6020526040902080546109e590611aaa565b80601f0160208091040260200160405190810160405280929190818152602001828054610a1190611aaa565b8015610a5c5780601f10610a3357610100808354040283529160200191610a5c565b820191905f5260205f20905b815481529060010190602001808311610a3f57829003601f168201915b50505050509050919050565b6060610a7382610f46565b505f8281526006602052604081208054610a8c90611aaa565b80601f0160208091040260200160405190810160405280929190818152602001828054610ab890611aaa565b8015610b035780601f10610ada57610100808354040283529160200191610b03565b820191905f5260205f20905b815481529060010190602001808311610ae657829003601f168201915b505050505090505f610b1f60408051602081019091525f815290565b905080515f03610b30575092915050565b815115610b62578082604051602001610b4a929190611b0d565b60405160208183030381529060405292505050919050565b610b6b846112c1565b949350505050565b610b7b61107d565b6001600160a01b038316610bd15760405162461bcd60e51b815260206004820152601960248201527f496e76616c696420726563697069656e74206164647265737300000000000000604482015260640161053d565b5f818152600c602052604090205415610c2c5760405162461bcd60e51b815260206004820152601760248201527f4f626a656374494420616c726561647920657869737473000000000000000000604482015260640161053d565b5f825111610c755760405162461bcd60e51b81526020600482015260166024820152754d65746164617461206861736820697320656d70747960501b604482015260640161053d565b6008545f908152600b602052604090208054610c9090611aaa565b159050610cf55760405162461bcd60e51b815260206004820152602d60248201527f4d65746164617461206861736820616c72656164792065786973747320666f7260448201526c081d1a1a5cc81d1bdad95b9259609a1b606482015260840161053d565b610d0183600854611332565b6008545f908152600b60205260409020610d1b8382611b65565b505f818152600a60205260409020610d338382611b65565b506008545f828152600c60209081526040808320849055838352600b8252808320858452600a9092529182902091516001600160a01b038716937f85e2609373812c2ca83e280f6bcd79ce77be8222aa869a201de59644a0378f1393610d9c9391928790611c9f565b60405180910390a260088054905f610db383611cdb565b9091555050600854600980546001810182555f919091527f6e1540171b6c0c960b71a7020d9f60077f6af931a8bbf590da0223dacf75c7af0155505050565b6040516331a9108f60e11b8152600481018390525f903090636352211e90602401602060405180830381865afa925050508015610e4c575060408051601f3d908101601f19168201909252610e4991810190611cff565b60015b610e5757505f61044d565b826001600160a01b0316816001600160a01b03161491505092915050565b6001600160a01b039182165f90815260056020908152604080832093909416825291909152205460ff1690565b610eaa61107d565b6001600160a01b038116610ed357604051631e4fbdf760e01b81525f600482015260240161053d565b610edc816110aa565b50565b600b6020525f9081526040902080546107f490611aaa565b5f6001600160e01b031982166380ac58cd60e01b1480610f2757506001600160e01b03198216635b5e139f60e01b145b8061044d57506301ffc9a760e01b6001600160e01b031983161461044d565b5f818152600260205260408120546001600160a01b03168061044d57604051637e27328960e01b81526004810184905260240161053d565b6106d4838383600161134b565b5f828152600260205260408120546001600160a01b0390811690831615610fb757610fb781848661144f565b6001600160a01b03811615610ff157610fd25f855f5f61134b565b6001600160a01b0381165f90815260036020526040902080545f190190555b6001600160a01b0385161561101f576001600160a01b0385165f908152600360205260409020805460010190555b5f8481526002602052604080822080546001600160a01b0319166001600160a01b0389811691821790925591518793918516917fddf252ad1be2c89b69c2b068fc378daa952ba7f163c4a11628f55a4df523b3ef91a4949350505050565b6007546001600160a01b031633146108d35760405163118cdaa760e01b815233600482015260240161053d565b600780546001600160a01b038381166001600160a01b0319831681179093556040519116919082907f8be0079c531659141344cd1fd0a4f28419497f9722a3daafe3b4186f6b6457e0905f90a35050565b6001600160a01b03821661112d57604051630b61174360e31b81526001600160a01b038316600482015260240161053d565b6001600160a01b038381165f81815260056020908152604080832094871680845294825291829020805460ff191686151590811790915591519182527f17307eab39ab6107e8899845ad3d59bd9653f200f220920489ca2b5937696c31910160405180910390a3505050565b6001600160a01b0383163b156112ba57604051630a85bd0160e11b81526001600160a01b0384169063150b7a02906111db908890889087908790600401611d1a565b6020604051808303815f875af1925050508015611215575060408051601f3d908101601f1916820190925261121291810190611d56565b60015b61127c573d808015611242576040519150601f19603f3d011682016040523d82523d5f602084013e611247565b606091505b5080515f0361127457604051633250574960e11b81526001600160a01b038516600482015260240161053d565b805181602001fd5b6001600160e01b03198116630a85bd0160e11b146112b857604051633250574960e11b81526001600160a01b038516600482015260240161053d565b505b5050505050565b60606112cc82610f46565b505f6112e260408051602081019091525f815290565b90505f8151116113005760405180602001604052805f81525061132b565b8061130a846114b3565b60405160200161131b929190611b0d565b6040516020818303038152906040525b9392505050565b610514828260405180602001604052805f815250611543565b808061135f57506001600160a01b03821615155b15611420575f61136e84610f46565b90506001600160a01b0383161580159061139a5750826001600160a01b0316816001600160a01b031614155b80156113ad57506113ab8184610e75565b155b156113d65760405163a9fbf51f60e01b81526001600160a01b038416600482015260240161053d565b811561141e5783856001600160a01b0316826001600160a01b03167f8c5be1e5ebec7d5bd14f71427d1e84f3dd0314c0f7b2291e5b200ac8c7c3b92560405160405180910390a45b505b50505f90815260046020526040902080546001600160a01b0319166001600160a01b0392909216919091179055565b61145a83838361155a565b6106d4576001600160a01b03831661148857604051637e27328960e01b81526004810182905260240161053d565b60405163177e802f60e01b81526001600160a01b03831660048201526024810182905260440161053d565b60605f6114bf836115bb565b60010190505f8167ffffffffffffffff8111156114de576114de6118ec565b6040519080825280601f01601f191660200182016040528015611508576020820181803683370190505b5090508181016020015b5f19016f181899199a1a9b1b9c1cb0b131b232b360811b600a86061a8153600a850494508461151257509392505050565b61154d8383611692565b6106d4335f858585611199565b5f6001600160a01b03831615801590610b6b5750826001600160a01b0316846001600160a01b0316148061159357506115938484610e75565b80610b6b5750505f908152600460205260409020546001600160a01b03908116911614919050565b5f8072184f03e93ff9f4daa797ed6e38ed64bf6a1f0160401b83106115f95772184f03e93ff9f4daa797ed6e38ed64bf6a1f0160401b830492506040015b6d04ee2d6d415b85acef81000000008310611625576d04ee2d6d415b85acef8100000000830492506020015b662386f26fc10000831061164357662386f26fc10000830492506010015b6305f5e100831061165b576305f5e100830492506008015b612710831061166f57612710830492506004015b60648310611681576064830492506002015b600a831061044d5760010192915050565b6001600160a01b0382166116bb57604051633250574960e11b81525f600482015260240161053d565b5f6116c783835f610f8b565b90506001600160a01b038116156106d4576040516339e3563760e11b81525f600482015260240161053d565b6001600160e01b031981168114610edc575f5ffd5b5f60208284031215611718575f5ffd5b813561132b816116f3565b5f81518084528060208401602086015e5f602082860101526020601f19601f83011685010191505092915050565b602081525f61132b6020830184611723565b5f60208284031215611773575f5ffd5b5035919050565b6001600160a01b0381168114610edc575f5ffd5b5f5f6040838503121561179f575f5ffd5b82356117aa8161177a565b946020939093013593505050565b5f5f5f606084860312156117ca575f5ffd5b83356117d58161177a565b925060208401356117e58161177a565b929592945050506040919091013590565b604080825283519082018190525f9060208501906060840190835b8181101561182f578351835260209384019390920191600101611811565b50508381036020850152809150845180825260208201925060208160051b830101602087015f5b8381101561188857601f19858403018652611872838351611723565b6020968701969093509190910190600101611856565b509098975050505050505050565b5f602082840312156118a6575f5ffd5b813561132b8161177a565b5f5f604083850312156118c2575f5ffd5b82356118cd8161177a565b9150602083013580151581146118e1575f5ffd5b809150509250929050565b634e487b7160e01b5f52604160045260245ffd5b5f5f67ffffffffffffffff84111561191a5761191a6118ec565b50604051601f19601f85018116603f0116810181811067ffffffffffffffff82111715611949576119496118ec565b604052838152905080828401851015611960575f5ffd5b838360208301375f60208583010152509392505050565b5f5f5f5f6080858703121561198a575f5ffd5b84356119958161177a565b935060208501356119a58161177a565b925060408501359150606085013567ffffffffffffffff8111156119c7575f5ffd5b8501601f810187136119d7575f5ffd5b6119e687823560208401611900565b91505092959194509250565b5f5f5f60608486031215611a04575f5ffd5b8335611a0f8161177a565b9250602084013567ffffffffffffffff811115611a2a575f5ffd5b8401601f81018613611a3a575f5ffd5b611a4986823560208401611900565b93969395505050506040919091013590565b5f5f60408385031215611a6c575f5ffd5b8235915060208301356118e18161177a565b5f5f60408385031215611a8f575f5ffd5b8235611a9a8161177a565b915060208301356118e18161177a565b600181811c90821680611abe57607f821691505b602082108103611adc57634e487b7160e01b5f52602260045260245ffd5b50919050565b634e487b7160e01b5f52603260045260245ffd5b5f81518060208401855e5f93019283525090919050565b5f610b6b611b1b8386611af6565b84611af6565b601f8211156106d457805f5260205f20601f840160051c81016020851015611b465750805b601f840160051c820191505b818110156112ba575f8155600101611b52565b815167ffffffffffffffff811115611b7f57611b7f6118ec565b611b9381611b8d8454611aaa565b84611b21565b6020601f821160018114611bc5575f8315611bae5750848201515b5f19600385901b1c1916600184901b1784556112ba565b5f84815260208120601f198516915b82811015611bf45787850151825560209485019460019092019101611bd4565b5084821015611c1157868401515f19600387901b60f8161c191681555b50505050600190811b01905550565b5f8154611c2c81611aaa565b808552600182168015611c465760018114611c6257611c96565b60ff1983166020870152602082151560051b8701019350611c96565b845f5260205f205f5b83811015611c8d5781546020828a010152600182019150602081019050611c6b565b87016020019450505b50505092915050565b848152608060208201525f611cb76080830186611c20565b8281036040840152611cc98186611c20565b91505082606083015295945050505050565b5f60018201611cf857634e487b7160e01b5f52601160045260245ffd5b5060010190565b5f60208284031215611d0f575f5ffd5b815161132b8161177a565b6001600160a01b03858116825284166020820152604081018390526080606082018190525f90611d4c90830184611723565b9695505050505050565b5f60208284031215611d66575f5ffd5b815161132b816116f356fea264697066735822122065e2e50ee2ef40bfa4ca294754d6cae00f5e32089477f9de8ebdeb299b7b6af864736f6c634300081c0033",
  "immutableReferences": {},
  "source": "// SPDX-License-Identifier: MIT\r\npragma solidity ^0.8.20;\r\n\r\nimport \"@openzeppelin/contracts/token/ERC721/extensions/ERC721URIStorage.sol\";\r\nimport \"@openzeppelin/contracts/access/Ownable.sol\";\r\n\r\ncontract CertificateNFT is ERC721URIStorage, Ownable {\r\n    uint256 public TokenId = 1;\r\n    uint256[] public allIssuedCert;\r\n    mapping(uint256 => string) public objectIDtoHash;\r\n    mapping(uint256 => string) public metadataHashes;\r\n    //mapping(uint256 => string) public objectID;\r\n    mapping(uint256   => uint256) public objectIDToTokenId; // Mapping objectID to tokenId\r\n\r\n    constructor() ERC721(\"CertificateNFT\", \"CERTNFT\")  Ownable(msg.sender) {}\r\n\r\n    event CertificateMinted(\r\n        address indexed recipient,\r\n        uint256 tokenId,\r\n        string metadataHash,\r\n        string objIDmetadataHash,\r\n        uint256  objectID\r\n    );\r\n\r\n    // Mint a new certificate (only owner/admin)\r\n    function mintCertificate(address recipient, string memory metadataHash, uint256 _objectID) external onlyOwner {\r\n    //function mintCertificate(address recipient, string memory metadataHash) external onlyOwner {\r\n        require(recipient != address(0), \"Invalid recipient address\");\r\n        require(objectIDToTokenId[_objectID] == 0, \"ObjectID already exists\");\r\n        require(bytes(metadataHash).length > 0, \"Metadata hash is empty\");\r\n\r\n        require(bytes(metadataHashes[TokenId]).length == 0, \"Metadata hash already exists for this tokenId\");\r\n\r\n        _safeMint(recipient, TokenId);\r\n        //_setTokenURI(tokenId, metadataURI);\r\n\r\n        metadataHashes[TokenId] = metadataHash;\r\n\r\n        objectIDtoHash[_objectID] = metadataHash;\r\n        //objectID[tokenId] = _objectID;\r\n\r\n        // Map the objectID to the tokenId\r\n        objectIDToTokenId[_objectID] = TokenId;\r\n\r\n        emit CertificateMinted(recipient, TokenId, metadataHashes[TokenId],objectIDtoHash[_objectID],  _objectID);\r\n        TokenId++;\r\n\r\n        allIssuedCert.push(TokenId);\r\n\r\n    }\r\n\r\n    //Retrieve tokenId using objectID\r\n    function getTokenIdFromObjectID(uint256  _objectID) external view returns (uint256) {\r\n        return objectIDToTokenId[_objectID]; // Return the tokenId mapped to objectID\r\n    }\r\n\r\n    function getMetadataHashes(uint256 id) external view returns (string memory) {\r\n        require(bytes(metadataHashes[id]).length > 0, \"Metadata hash not found.\");\r\n        string memory hash = metadataHashes[id];\r\n        return hash;  // Return the stored metadata hash for the token\r\n    }\r\n\r\n    function getMetadataHashFromObjectID(uint256 _objectID) external view returns (string memory) {\r\n        require(bytes(objectIDtoHash[_objectID]).length > 0, \"Metadata hash not found.\");\r\n        return objectIDtoHash[_objectID];  // Return the stored metadata hash for the objectID\r\n    }\r\n\r\n    // Check if a certificate exists and its owner\r\n    function isCertificateValid(uint256 tokenId, address claimedOwner) external view returns (bool) {\r\n        try this.ownerOf(tokenId) returns (address owner) {\r\n            return owner == claimedOwner;\r\n        } catch {\r\n            return false;\r\n        }\r\n    }\r\n\r\n    // Retrieve metadata URI for verification\r\n    // function getCertificateMetadata(uint256 tokenId) external view returns (string memory) {\r\n    //     try this.ownerOf(tokenId) returns (address) {\r\n    //         return tokenURI(tokenId); // Token exists\r\n    //     } catch {\r\n    //         revert(\"Certificate does not exist\");\r\n    //     }\r\n    // }\r\n\r\n    function getAllIssuedCert() external view onlyOwner returns (uint256[] memory, string[] memory) {\r\n\r\n        uint256 length = allIssuedCert.length;\r\n        string[] memory metadata = new string[](length);\r\n\r\n        for(uint256 i = 0; i < length; i++) {\r\n            uint256 tokenID = allIssuedCert[i];\r\n            metadata[i] = tokenURI(tokenID);\r\n        }\r\n\r\n        return (allIssuedCert, metadata);\r\n    }\r\n\r\n    function checkMetadataExists(uint256 tokenId) external view returns (bool) {\r\n    return (bytes(metadataHashes[tokenId]).length > 0);\r\n    }\r\n\r\n    function objIdToHash(uint256 _objectID) external view returns (bool) {\r\n        return (bytes(objectIDtoHash[_objectID]).length > 0);\r\n    }\r\n\r\n}\r\n\r\n",
  "sourcePath": "C:\\Users\\Dylan\\Downloads\\assign(front+backend)2\\assign\\contracts\\CertificateNFT.sol",
  "compiler": {
    "name": "solc",
    "version": "0.8.28+commit.7893614a.Emscripten.clang"
  },
  "schemaVersion": "3.4.16",
  "updatedAt": "2025-01-19T04:41:41.506Z",
  "networkType": "ethereum",
  "devdoc": {
    "errors": {
      "ERC721IncorrectOwner(address,uint256,address)": [
        {
          "details": "Indicates an error related to the ownership over a particular token. Used in transfers.",
          "params": {
            "owner": "Address of the current owner of a token.",
            "sender": "Address whose tokens are being transferred.",
            "tokenId": "Identifier number of a token."
          }
        }
      ],
      "ERC721InsufficientApproval(address,uint256)": [
        {
          "details": "Indicates a failure with the `operator`s approval. Used in transfers.",
          "params": {
            "operator": "Address that may be allowed to operate on tokens without being their owner.",
            "tokenId": "Identifier number of a token."
          }
        }
      ],
      "ERC721InvalidApprover(address)": [
        {
          "details": "Indicates a failure with the `approver` of a token to be approved. Used in approvals.",
          "params": {
            "approver": "Address initiating an approval operation."
          }
        }
      ],
      "ERC721InvalidOperator(address)": [
        {
          "details": "Indicates a failure with the `operator` to be approved. Used in approvals.",
          "params": {
            "operator": "Address that may be allowed to operate on tokens without being their owner."
          }
        }
      ],
      "ERC721InvalidOwner(address)": [
        {
          "details": "Indicates that an address can't be an owner. For example, `address(0)` is a forbidden owner in ERC-20. Used in balance queries.",
          "params": {
            "owner": "Address of the current owner of a token."
          }
        }
      ],
      "ERC721InvalidReceiver(address)": [
        {
          "details": "Indicates a failure with the token `receiver`. Used in transfers.",
          "params": {
            "receiver": "Address to which tokens are being transferred."
          }
        }
      ],
      "ERC721InvalidSender(address)": [
        {
          "details": "Indicates a failure with the token `sender`. Used in transfers.",
          "params": {
            "sender": "Address whose tokens are being transferred."
          }
        }
      ],
      "ERC721NonexistentToken(uint256)": [
        {
          "details": "Indicates a `tokenId` whose `owner` is the zero address.",
          "params": {
            "tokenId": "Identifier number of a token."
          }
        }
      ],
      "OwnableInvalidOwner(address)": [
        {
          "details": "The owner is not a valid owner account. (eg. `address(0)`)"
        }
      ],
      "OwnableUnauthorizedAccount(address)": [
        {
          "details": "The caller account is not authorized to perform an operation."
        }
      ]
    },
    "events": {
      "Approval(address,address,uint256)": {
        "details": "Emitted when `owner` enables `approved` to manage the `tokenId` token."
      },
      "ApprovalForAll(address,address,bool)": {
        "details": "Emitted when `owner` enables or disables (`approved`) `operator` to manage all of its assets."
      },
      "BatchMetadataUpdate(uint256,uint256)": {
        "details": "This event emits when the metadata of a range of tokens is changed. So that the third-party platforms such as NFT market could timely update the images and related attributes of the NFTs."
      },
      "MetadataUpdate(uint256)": {
        "details": "This event emits when the metadata of a token is changed. So that the third-party platforms such as NFT market could timely update the images and related attributes of the NFT."
      },
      "Transfer(address,address,uint256)": {
        "details": "Emitted when `tokenId` token is transferred from `from` to `to`."
      }
    },
    "kind": "dev",
    "methods": {
      "approve(address,uint256)": {
        "details": "See {IERC721-approve}."
      },
      "balanceOf(address)": {
        "details": "See {IERC721-balanceOf}."
      },
      "getApproved(uint256)": {
        "details": "See {IERC721-getApproved}."
      },
      "isApprovedForAll(address,address)": {
        "details": "See {IERC721-isApprovedForAll}."
      },
      "name()": {
        "details": "See {IERC721Metadata-name}."
      },
      "owner()": {
        "details": "Returns the address of the current owner."
      },
      "ownerOf(uint256)": {
        "details": "See {IERC721-ownerOf}."
      },
      "renounceOwnership()": {
        "details": "Leaves the contract without owner. It will not be possible to call `onlyOwner` functions. Can only be called by the current owner. NOTE: Renouncing ownership will leave the contract without an owner, thereby disabling any functionality that is only available to the owner."
      },
      "safeTransferFrom(address,address,uint256)": {
        "details": "See {IERC721-safeTransferFrom}."
      },
      "safeTransferFrom(address,address,uint256,bytes)": {
        "details": "See {IERC721-safeTransferFrom}."
      },
      "setApprovalForAll(address,bool)": {
        "details": "See {IERC721-setApprovalForAll}."
      },
      "supportsInterface(bytes4)": {
        "details": "See {IERC165-supportsInterface}"
      },
      "symbol()": {
        "details": "See {IERC721Metadata-symbol}."
      },
      "tokenURI(uint256)": {
        "details": "See {IERC721Metadata-tokenURI}."
      },
      "transferFrom(address,address,uint256)": {
        "details": "See {IERC721-transferFrom}."
      },
      "transferOwnership(address)": {
        "details": "Transfers ownership of the contract to a new account (`newOwner`). Can only be called by the current owner."
      }
    },
    "version": 1
  },
  "userdoc": {
    "kind": "user",
    "methods": {},
    "version": 1
  }
}