{
  "contractName": "UserContract",
  "abi": [
    {
      "inputs": [
        {
          "internalType": "address",
          "name": "certificateNFTAddress",
          "type": "address"
        }
      ],
      "stateMutability": "nonpayable",
      "type": "constructor"
    },
    {
      "inputs": [],
      "name": "certificateNFT",
      "outputs": [
        {
          "internalType": "contract ICertificateNFT",
          "name": "",
          "type": "address"
        }
      ],
      "stateMutability": "view",
      "type": "function",
      "constant": true
    },
    {
      "inputs": [
        {
          "internalType": "uint256",
          "name": "_objectID",
          "type": "uint256"
        },
        {
          "internalType": "string",
          "name": "metadataHash",
          "type": "string"
        },
        {
          "internalType": "address",
          "name": "claimedOwner",
          "type": "address"
        }
      ],
      "name": "verifyCertificate",
      "outputs": [
        {
          "internalType": "bool",
          "name": "success",
          "type": "bool"
        },
        {
          "internalType": "string",
          "name": "errorMessage",
          "type": "string"
        }
      ],
      "stateMutability": "view",
      "type": "function",
      "constant": true
    }
  ],
  "bytecode": "0x6080604052348015600e575f5ffd5b506040516106c03803806106c0833981016040819052602b91604e565b5f80546001600160a01b0319166001600160a01b03929092169190911790556079565b5f60208284031215605d575f5ffd5b81516001600160a01b03811681146072575f5ffd5b9392505050565b61063a806100865f395ff3fe608060405234801561000f575f5ffd5b5060043610610034575f3560e01c80633ee742c51461003857806391aec72a14610062575b5f5ffd5b61004b61004636600461046b565b61008c565b6040516100599291906104fe565b60405180910390f35b5f54610074906001600160a01b031681565b6040516001600160a01b039091168152602001610059565b5f805460405163447b707160e01b81526004810186905260609183916001600160a01b039091169063447b707190602401602060405180830381865afa1580156100d8573d5f5f3e3d5ffd5b505050506040513d601f19601f820116820180604052508101906100fc919061053c565b9050805f036101695760405162461bcd60e51b815260206004820152602e60248201527f546f6b656e20494420646f6573206e6f7420657869737420666f72207468652060448201526d19da5d995b881bd89a9958dd125160921b60648201526084015b60405180910390fd5b5f80546040516336883bf960e21b8152600481018490526001600160a01b0387811660248301529091169063da20efe490604401602060405180830381865afa1580156101b8573d5f5f3e3d5ffd5b505050506040513d601f19601f820116820180604052508101906101dc9190610553565b9050806102465760405162461bcd60e51b815260206004820152603260248201527f4365727469666963617465206f776e657220646f6573206e6f74206d61746368604482015271103a34329031b630b4b6b2b21037bbb732b960711b6064820152608401610160565b5f8054604051631f3faf1960e31b8152600481018590526001600160a01b039091169063f9fd78c8906024015f60405180830381865afa15801561028c573d5f5f3e3d5ffd5b505050506040513d5f823e601f3d908101601f191682016040526102b39190810190610579565b90505f8151116102f95760405162461bcd60e51b81526020600482015260116024820152704d6574616461746120697320656d70747960781b6044820152606401610160565b8660405160200161030a91906105ee565b604051602081830303815290604052805190602001208160405160200161033191906105ee565b60405160208183030381529060405280519060200120146103a95760405162461bcd60e51b815260206004820152602c60248201527f4d65746164617461206861736820646f6573206e6f74206d617463682074686560448201526b040e6e8dee4cac840d0c2e6d60a31b6064820152608401610160565b505060408051808201909152601481527310d95c9d1a599a58d85d19481a5cc81d985b1a5960621b6020820152600197909650945050505050565b634e487b7160e01b5f52604160045260245ffd5b604051601f8201601f1916810167ffffffffffffffff81118282101715610421576104216103e4565b604052919050565b5f67ffffffffffffffff821115610442576104426103e4565b50601f01601f191660200190565b80356001600160a01b0381168114610466575f5ffd5b919050565b5f5f5f6060848603121561047d575f5ffd5b83359250602084013567ffffffffffffffff81111561049a575f5ffd5b8401601f810186136104aa575f5ffd5b80356104bd6104b882610429565b6103f8565b8181528760208385010111156104d1575f5ffd5b816020840160208301375f602083830101528094505050506104f560408501610450565b90509250925092565b8215158152604060208201525f82518060408401528060208501606085015e5f606082850101526060601f19601f8301168401019150509392505050565b5f6020828403121561054c575f5ffd5b5051919050565b5f60208284031215610563575f5ffd5b81518015158114610572575f5ffd5b9392505050565b5f60208284031215610589575f5ffd5b815167ffffffffffffffff81111561059f575f5ffd5b8201601f810184136105af575f5ffd5b80516105bd6104b882610429565b8181528560208385010111156105d1575f5ffd5b8160208401602083015e5f91810160200191909152949350505050565b5f82518060208501845e5f92019182525091905056fea26469706673582212206eb70c336849fe4738dd93afc2d8a65c62ae75c06a1216ea197b0148bb2ba13264736f6c634300081c0033",
  "immutableReferences": {},
  "source": "// SPDX-License-Identifier: MIT\r\npragma solidity ^0.8.20;\r\n\r\ninterface ICertificateNFT {\r\n    function isCertificateValid(uint256 tokenId, address claimedOwner) external view returns (bool);\r\n    function getCertificateMetadata(uint256 tokenId) external view returns (string memory);\r\n    function getTokenIdFromObjectID(uint256  _objectID) external view returns (uint256); // New method to get tokenId\r\n    function metadataHashes(uint256 tokenId) external view returns (string memory);\r\n}\r\n\r\ncontract UserContract {\r\n    ICertificateNFT public certificateNFT;\r\n\r\n    constructor(address certificateNFTAddress) {\r\n        certificateNFT = ICertificateNFT(certificateNFTAddress);\r\n    }\r\n\r\n    // Verify a certificate\r\n    function verifyCertificate(\r\n        uint256  _objectID, // Accept objectID as input\r\n        string memory metadataHash,\r\n        address claimedOwner\r\n    ) external view returns (bool success, string memory errorMessage) {\r\n        // Get tokenId using objectID\r\n        uint256 tokenId = certificateNFT.getTokenIdFromObjectID(_objectID);\r\n        // Check if the certificate is valid (owner and metadata)\r\n        require(tokenId != 0, \"Token ID does not exist for the given objectID\");\r\n\r\n    // Check if the certificate is valid (owner)\r\n        bool isOwnerValid = certificateNFT.isCertificateValid(tokenId, claimedOwner);\r\n        require(isOwnerValid, \"Certificate owner does not match the claimed owner\");\r\n\r\n        // Retrieve the stored metadata hash\r\n        string memory storedMetadataHash = certificateNFT.metadataHashes(tokenId);\r\n        require(bytes(storedMetadataHash).length > 0, \"Metadata is empty\");\r\n        require(\r\n            keccak256(abi.encodePacked(storedMetadataHash)) == keccak256(abi.encodePacked(metadataHash)),\r\n            \"Metadata hash does not match the stored hash\"\r\n        );\r\n\r\n        // If all checks pass, return success\r\n        return (true, \"Certificate is valid\");\r\n    }\r\n}\r\n",
  "sourcePath": "C:\\Users\\Dylan\\Downloads\\assign(front+backend)2\\assign\\contracts\\Users.sol",
  "compiler": {
    "name": "solc",
    "version": "0.8.28+commit.7893614a.Emscripten.clang"
  },
  "schemaVersion": "3.4.16",
  "updatedAt": "2025-01-19T04:41:41.515Z",
  "networkType": "ethereum",
  "devdoc": {
    "kind": "dev",
    "methods": {},
    "version": 1
  },
  "userdoc": {
    "kind": "user",
    "methods": {},
    "version": 1
  }
}