{
  "_format": "hh-sol-artifact-1",
  "contractName": "UserContract",
  "sourceName": "contracts/Users.sol",
  "abi": [
    {
      "inputs": [
        {
          "internalType": "address",
          "name": "certificateNFTAddress",
          "type": "address"
        }
      ],
      "stateMutability": "nonpayable",
      "type": "constructor"
    },
    {
      "inputs": [],
      "name": "certificateNFT",
      "outputs": [
        {
          "internalType": "contract ICertificateNFT",
          "name": "",
          "type": "address"
        }
      ],
      "stateMutability": "view",
      "type": "function"
    },
    {
      "inputs": [
        {
          "internalType": "uint256",
          "name": "_objectID",
          "type": "uint256"
        },
        {
          "internalType": "string",
          "name": "metadataHash",
          "type": "string"
        },
        {
          "internalType": "address",
          "name": "claimedOwner",
          "type": "address"
        }
      ],
      "name": "verifyCertificate",
      "outputs": [
        {
          "internalType": "bool",
          "name": "success",
          "type": "bool"
        },
        {
          "internalType": "string",
          "name": "errorMessage",
          "type": "string"
        }
      ],
      "stateMutability": "view",
      "type": "function"
    }
  ],
  "bytecode": "0x608060405234801561001057600080fd5b50604051610b94380380610b94833981810160405281019061003291906100db565b806000806101000a81548173ffffffffffffffffffffffffffffffffffffffff021916908373ffffffffffffffffffffffffffffffffffffffff16021790555050610108565b600080fd5b600073ffffffffffffffffffffffffffffffffffffffff82169050919050565b60006100a88261007d565b9050919050565b6100b88161009d565b81146100c357600080fd5b50565b6000815190506100d5816100af565b92915050565b6000602082840312156100f1576100f0610078565b5b60006100ff848285016100c6565b91505092915050565b610a7d806101176000396000f3fe608060405234801561001057600080fd5b50600436106100365760003560e01c80633ee742c51461003b57806391aec72a1461006c575b600080fd5b6100556004803603810190610050919061053d565b61008a565b604051610063929190610646565b60405180910390f35b61007461032b565b60405161008191906106d5565b60405180910390f35b6000606060008060009054906101000a900473ffffffffffffffffffffffffffffffffffffffff1673ffffffffffffffffffffffffffffffffffffffff1663da20efe487866040518363ffffffff1660e01b81526004016100ec92919061070e565b602060405180830381865afa158015610109573d6000803e3d6000fd5b505050506040513d601f19601f8201168201806040525081019061012d9190610763565b90508061016f576040517f08c379a000000000000000000000000000000000000000000000000000000000815260040161016690610802565b60405180910390fd5b60008060009054906101000a900473ffffffffffffffffffffffffffffffffffffffff1673ffffffffffffffffffffffffffffffffffffffff1663f9fd78c8886040518263ffffffff1660e01b81526004016101cb9190610822565b600060405180830381865afa1580156101e8573d6000803e3d6000fd5b505050506040513d6000823e3d601f19601f8201168201806040525081019061021191906108ad565b90506000815111610257576040517f08c379a000000000000000000000000000000000000000000000000000000000815260040161024e90610942565b60405180910390fd5b85604051602001610268919061099e565b604051602081830303815290604052805190602001208160405160200161028f919061099e565b60405160208183030381529060405280519060200120146102e5576040517f08c379a00000000000000000000000000000000000000000000000000000000081526004016102dc90610a27565b60405180910390fd5b60016040518060400160405280601481526020017f43657274696669636174652069732076616c6964000000000000000000000000815250935093505050935093915050565b60008054906101000a900473ffffffffffffffffffffffffffffffffffffffff1681565b6000604051905090565b600080fd5b600080fd5b6000819050919050565b61037681610363565b811461038157600080fd5b50565b6000813590506103938161036d565b92915050565b600080fd5b600080fd5b6000601f19601f8301169050919050565b7f4e487b7100000000000000000000000000000000000000000000000000000000600052604160045260246000fd5b6103ec826103a3565b810181811067ffffffffffffffff8211171561040b5761040a6103b4565b5b80604052505050565b600061041e61034f565b905061042a82826103e3565b919050565b600067ffffffffffffffff82111561044a576104496103b4565b5b610453826103a3565b9050602081019050919050565b82818337600083830152505050565b600061048261047d8461042f565b610414565b90508281526020810184848401111561049e5761049d61039e565b5b6104a9848285610460565b509392505050565b600082601f8301126104c6576104c5610399565b5b81356104d684826020860161046f565b91505092915050565b600073ffffffffffffffffffffffffffffffffffffffff82169050919050565b600061050a826104df565b9050919050565b61051a816104ff565b811461052557600080fd5b50565b60008135905061053781610511565b92915050565b60008060006060848603121561055657610555610359565b5b600061056486828701610384565b935050602084013567ffffffffffffffff8111156105855761058461035e565b5b610591868287016104b1565b92505060406105a286828701610528565b9150509250925092565b60008115159050919050565b6105c1816105ac565b82525050565b600081519050919050565b600082825260208201905092915050565b60005b838110156106015780820151818401526020810190506105e6565b60008484015250505050565b6000610618826105c7565b61062281856105d2565b93506106328185602086016105e3565b61063b816103a3565b840191505092915050565b600060408201905061065b60008301856105b8565b818103602083015261066d818461060d565b90509392505050565b6000819050919050565b600061069b610696610691846104df565b610676565b6104df565b9050919050565b60006106ad82610680565b9050919050565b60006106bf826106a2565b9050919050565b6106cf816106b4565b82525050565b60006020820190506106ea60008301846106c6565b92915050565b6106f981610363565b82525050565b610708816104ff565b82525050565b600060408201905061072360008301856106f0565b61073060208301846106ff565b9392505050565b610740816105ac565b811461074b57600080fd5b50565b60008151905061075d81610737565b92915050565b60006020828403121561077957610778610359565b5b60006107878482850161074e565b91505092915050565b7f4365727469666963617465206f776e657220646f6573206e6f74206d6174636860008201527f2074686520636c61696d6564206f776e65720000000000000000000000000000602082015250565b60006107ec6032836105d2565b91506107f782610790565b604082019050919050565b6000602082019050818103600083015261081b816107df565b9050919050565b600060208201905061083760008301846106f0565b92915050565b600061085061084b8461042f565b610414565b90508281526020810184848401111561086c5761086b61039e565b5b6108778482856105e3565b509392505050565b600082601f83011261089457610893610399565b5b81516108a484826020860161083d565b91505092915050565b6000602082840312156108c3576108c2610359565b5b600082015167ffffffffffffffff8111156108e1576108e061035e565b5b6108ed8482850161087f565b91505092915050565b7f4d6574616461746120697320656d707479000000000000000000000000000000600082015250565b600061092c6011836105d2565b9150610937826108f6565b602082019050919050565b6000602082019050818103600083015261095b8161091f565b9050919050565b600081905092915050565b6000610978826105c7565b6109828185610962565b93506109928185602086016105e3565b80840191505092915050565b60006109aa828461096d565b915081905092915050565b7f4d65746164617461206861736820646f6573206e6f74206d617463682074686560008201527f2073746f72656420686173680000000000000000000000000000000000000000602082015250565b6000610a11602c836105d2565b9150610a1c826109b5565b604082019050919050565b60006020820190508181036000830152610a4081610a04565b905091905056fea2646970667358221220f016cdda2440583dec20ba3c87c355626597c421c49173683342630f825fea5e64736f6c63430008140033",
  "linkReferences": {},
  "deployedLinkReferences": {}
}